:100000000C9402010C942C010C942C010C942C01E6
:100010000C942C010C942C010C942C010C942C01AC
:100020000C942C010C942C010C942C010C942C019C
:100030000C942C010C942C010C94EE090C942C01C2
:100040000C942C010C942C010C942C010C942C017C
:100050000C942C010C942C010C942C010C942C016C
:100060000C942C010C94C1020C94F3030C942C01FD
:100070000C9427030C942C010C942C010C942C014F
:100080000C942C010C942C010C942C010C942C013C
:100090000C942C010C942C010C942C010C942C012C
:1000A0000C942C010C942C010C942C010C942C011C
:1000B0000C942C010C942C010C942C010C942C010C
:1000C0000C942C010C942C010C942C010C942C01FC
:1000D0000C942C010C942C010C942C010C942C01EC
:1000E0000C942C010C942C010C948D030C942C0179
:1000F0000C942C010C942C010C942C010C942C01CC
:100100000C9458170C942C010C942C010C942C0179
:100110000C942C010C942C010C942C010C942C01AB
:100120000C942C010C942C010C942C010C942C019B
:100130000C942C010C94F4180C942C010C942C01AC
:100140000C942C010C942C010C942C010C9422196D
:100150000C942C010C942C010C942C010C942C016B
:100160000C942C010C942C010C942C010C942C015B
:100170000C942C010C942C010C942C010C942C014B
:100180000C942C010C942C010C942C010C942C013B
:100190000C942C010C942C010C942C010C942C012B
:1001A0000C942C010C942C010C942C010C942C011B
:1001B0000C942C010C942C010C942C010C942C010B
:1001C0000C942C010C942C010C942C010C942C01FB
:1001D0000C942C010C942C010C942C010C942C01EB
:1001E0000C942C010C942C010C942C010C942C01DB
:1001F0000C942C010C942C010C942C010C94A7123F
:100200000C947A1811241FBECFEFCDBFDFE3DEBF01
:1002100000E00CBFE7EAFCE28AEA90E48193E03078
:10022000F907E0F3000010E2A0E0B0E2EEEAF7E345
:1002300000E00BBF02C007900D92AE30B107D9F7B6
:100240002CE2AEE0B0E201C01D92A73AB207E1F79E
:100250000E94BD170C94D51B0C9459040F93CF9397
:10026000DF9300D000D0CDB7DEB78C839D836E8343
:100270008FE390E0FC0180818B83F8948C819D81D9
:1002800089839A838BE390E0FC01108289819A81B3
:100290002E81FC0108ED04BF20838FE390E02B81C9
:1002A000FC01208300002696CDBFDEBFDF91CF91F9
:1002B0000F910895CF93DF9300D0CDB7DEB7898338
:1002C0006A834B8380E590E02A81222311F020E2AB
:1002D00001C020E03981322B2B81232BFC012283AA
:1002E00000002396CDBFDEBFDF91CF910895CF935D
:1002F000DF931F921F92CDB7DEB789836A838A810D
:100300008F718A8380E590E039812A81232BFC015B
:10031000258300000F900F90DF91CF910895CF9328
:10032000DF931F921F92CDB7DEB78A8380E590E0FE
:1003300020E530E0F9012081322F2A812095232306
:10034000FC01208380E590E0FC0190818A81892373
:10035000898389810F900F90DF91CF910895CF937A
:10036000DF9300D0CDB7DEB78A836B839A818B8110
:10037000892B8983698181E490E00E942E0100002D
:100380002396CDBFDEBFDF91CF910895CF93DF934A
:100390001F921F92CDB7DEB78A8380E490E0FC0104
:1003A0008081982F987F8A81892B8983698180E455
:1003B00090E00E942E0180E490E0FC0190818A810F
:1003C0008923898389810F900F90DF91CF910895C0
:1003D0000F93CF93DF93CDB7DEB72797CDBFDEBFA7
:1003E00089839A836B834C832D833E830F8389811A
:1003F0009A812D813E81FC012083318389819A81FC
:100400002F81FC0122838C81882319F08C8181301B
:10041000A9F440E061E08B810E942A0B9C01898154
:100420009A81FC012383348389819A81FC01838131
:100430009481892B19F48AE20E949E148C8188236E
:1004400019F08C818230A9F440E061E08B810E9438
:100450002A0B9C0189819A81FC012583368389813D
:100460009A81FC0185819681892B19F48AE20E9488
:100470009E1489819A8107960E94A61900002796EA
:10048000CDBFDEBFDF91CF910F910895CF93DF9362
:1004900000D01F92CDB7DEB78B839C831A828B81ED
:1004A0009C81FC0180819181FC01808189838B8109
:1004B0009C81FC0183819481AE014E5F5F4F20E0FF
:1004C000BE016F5F7F4F0E94AF0B813019F086E352
:1004D0000E948F149A8181E0992309F480E0249688
:1004E000CDBFDEBFDF91CF910895CF93DF9300D0D2
:1004F0001F92CDB7DEB78B839C831A828B819C8140
:10050000FC01858196819E012E5F3F4FA9019E01CE
:100510002F5F3F4FB9010E940F0C8130C1F4298138
:100520008B819C810796622F0E94B819982F81E0D9
:100530008927882319F085E30E948F148B819C8181
:10054000FC01808191812981FC0120830FC08B8176
:100550009C81FC01808191812B813C81F90120816A
:100560003181F90123812C7FFC0123839A8181E071
:10057000992309F480E02496CDBFDEBFDF91CF91AF
:100580000895FF93FFB7FF93F091A200FF93F87FC8
:10059000F093A2000F921F9211242F923F924F923C
:1005A0005F926F927F928F929F92AF92BF92CF9203
:1005B000DF92EF92FF920F931F932F933F934F93EE
:1005C0005F936F937F938F939F93AF93BF93CF93DB
:1005D000DF93EF93A091C82BB091C92B0DB60D926C
:1005E0000EB60D9289E49CE20E9446020E948C099C
:1005F000A091C82BB091C92B0D900DBE0D900EBED1
:10060000EF91DF91CF91BF91AF919F918F917F91AA
:100610006F915F914F913F912F911F910F91FF909B
:10062000EF90DF90CF90BF90AF909F908F907F9092
:100630006F905F904F903F902F901F900F90FF9181
:10064000F093A200FF91FFBFFF9118950000FF9368
:10065000FFB7FF93F091A200FF93F87FF093A20001
:100660000F921F9211242F923F924F925F926F929E
:100670007F928F929F92AF92BF92CF92DF92EF9232
:10068000FF920F931F932F933F934F935F936F931B
:100690007F938F939F93AF93BF93CF93DF93EF930A
:1006A000A091C82BB091C92B0DB60D920EB60D922C
:1006B0008DE39CE20E9446020E948C09A091C82B07
:1006C000B091C92B0D900DBE0D900EBEEF91DF9134
:1006D000CF91BF91AF919F918F917F916F915F91DA
:1006E0004F913F912F911F910F91FF90EF90DF90CD
:1006F000CF90BF90AF909F908F907F906F905F90C2
:100700004F903F902F901F900F90FF91F093A20079
:10071000FF91FFBFFF9118950000FF93FFB7FF9374
:10072000F091A200FF93F87FF093A2000F921F9226
:1007300011242F923F924F925F926F927F928F92ED
:100740009F92AF92BF92CF92DF92EF92FF920F9360
:100750001F932F933F934F935F936F937F938F9349
:100760009F93AF93BF93CF93DF93EF93A091C82B49
:10077000B091C92B0DB60D920EB60D9285E59CE297
:100780000E9446020E948C09A091C82BB091C92BEF
:100790000D900DBE0D900EBEEF91DF91CF91BF91E8
:1007A000AF919F918F917F916F915F914F913F9109
:1007B0002F911F910F91FF90EF90DF90CF90BF90FE
:1007C000AF909F908F907F906F905F904F903F90F1
:1007D0002F901F900F90FF91F093A200FF91FFBF09
:1007E000FF9118950000FF93FFB7FF93F091A200CF
:1007F000FF93F87FF093A2000F921F9211242F9283
:100800003F924F925F926F927F928F929F92AF92A0
:10081000BF92CF92DF92EF92FF920F931F932F938D
:100820003F934F935F936F937F938F939F93AF9378
:10083000BF93CF93DF93EF93A091C82BB091C92BB7
:100840000DB60D920EB60D9289E49CE20E947502DF
:100850000E948C09A091C82BB091C92B0D900DBEA0
:100860000D900EBEEF91DF91CF91BF91AF919F910F
:100870008F917F916F915F914F913F912F911F9138
:100880000F91FF90EF90DF90CF90BF90AF909F902F
:100890008F907F906F905F904F903F902F901F9020
:1008A0000F90FF91F093A200FF91FFBFFF91189569
:1008B00000001F920F9200903F000F9211240090B1
:1008C0003B000F922F933F934F935F936F937F93D0
:1008D0008F939F93AF93BF93EF93FF93CF93DF9348
:1008E000CDB7DEB780E30E949E140000DF91CF9168
:1008F000FF91EF91BF91AF919F918F917F916F91F8
:100900005F914F913F912F910F9000923B000F907C
:1009100000923F000F901F901895CF93DF9300D067
:100920001F92CDB7DEB789839A836B834C8389810D
:100930009A81FC018185982F9C7F8B81892B282FA0
:1009400089819A81FC01218789819A812C81FC010E
:10095000228700002496CDBFDEBFDF91CF9108959E
:10096000EF920F93CF93DF93CDB7DEB72997CDBF2B
:10097000DEBF8B839C836D834E832F830887E9863C
:1009800098858985892B982F8E81882311F080E89E
:1009900001C080E0982B8F81882311F080E401C092
:1009A00080E0892B89838FE390E0FC0180818A833A
:1009B000F89480EB90E02D81FC0120838B819C8159
:1009C0002981FC01208B8FE390E02A81FC012083A8
:1009D00000002996CDBFDEBFDF91CF910F91EF9040
:1009E0000895CF93DF9300D0CDB7DEB789839A8384
:1009F0006B8389819A81FC018081982F907F8B8104
:100A0000892B282F89819A81FC012083000023965D
:100A1000CDBFDEBFDF91CF910895CF93DF9300D09C
:100A2000CDB7DEB789839A836B8389819A81FC0174
:100A30008681982F9C7F8B81892B282F89819A8191
:100A4000FC01268300002396CDBFDEBFDF91CF914E
:100A50000895CF93DF9300D01F92CDB7DEB78B837D
:100A60009C8319821A820E94BB0F2091C62B309161
:100A7000C72B8B819C81820F931F883B9B4018F56D
:100A80002091C62B3091C72B8B819C81280F391F59
:100A90008091C62B9091C72B82179307A0F4809169
:100AA000C62B9091C72B825F9F4D89839A8320919B
:100AB000C62B3091C72B8B819C81820F931F809313
:100AC000C62B9093C72B0E94C80F89819A81892BCE
:100AD00011F40E946E1489819A812496CDBFDEBFE5
:100AE000DF91CF910895CF93DF931F921F92CDB7DF
:100AF000DEB789839A8300000F900F90DF91CF912A
:100B00000895CF93DF93CDB7DEB78091C62B909138
:100B1000C72B28EB3BE0A901481B590BCA01DF9109
:100B2000CF910895CF93DF931F921F92CDB7DEB779
:100B300089839A8389819A819C012D5F3F4F8981A6
:100B40009A81FC012183328329813A818FEF9FEFC3
:100B5000DC01F90183839483A583B68389819A811B
:100B60009C012D5F3F4F89819A81FC01278330874B
:100B700089819A819C012D5F3F4F89819A81FC0177
:100B80002187328789819A81FC01108200000F90B1
:100B90000F90DF91CF910895CF93DF931F921F9213
:100BA000CDB7DEB789839A8389819A81FC01128649
:100BB000138600000F900F90DF91CF910895CF938F
:100BC000DF9300D000D0CDB7DEB78B839C836D83DD
:100BD0007E838B819C81FC018181928189839A83B0
:100BE0008D819E8129813A81FC012483358389810D
:100BF0009A81FC01268137818D819E81FC012683AB
:100C0000378389819A81FC01868197812D813E817C
:100C1000FC012483358389819A812D813E81FC01E9
:100C2000268337838D819E812B813C81FC01228725
:100C300033878B819C81FC01808121E0280F8B818F
:100C40009C81FC01208300002696CDBFDEBFDF9192
:100C5000CF910895CF93DF93CDB7DEB72A97CDBF5D
:100C6000DEBF8F83988769877A8789859A85FC019B
:100C700080819181A281B3818B839C83AD83BE836C
:100C80008B819C81AD81BE818F3F9F4FAF4FBF4F06
:100C900041F48F819885FC018185928589839A83AF
:100CA00020C08F819885039689839A8307C08981A4
:100CB0009A81FC018481958189839A8389819A81B3
:100CC000FC0184819581FC01208131814281538125
:100CD0008B819C81AD81BE8182179307A407B507E4
:100CE00030F789819A81FC012481358189859A8533
:100CF000FC012483358389859A85FC018481958153
:100D000029853A85FC012683378389859A8529813F
:100D10003A81FC012683378389819A8129853A8526
:100D2000FC012483358389859A852F813885FC01D0
:100D3000228733878F819885FC01808121E0280FED
:100D40008F819885FC01208300002A96CDBFDEBFED
:100D5000DF91CF910895CF93DF9300D01F92CDB74D
:100D6000DEB78B839C838B819C81FC01828593857C
:100D700089839A838B819C81FC01848195812B815D
:100D80003C81F90126813781FC01268337838B81E1
:100D90009C81FC01868197812B813C81F901248112
:100DA0003581FC012483358389819A81FC0121816D
:100DB00032818B819C812817390751F48B819C816A
:100DC000FC012681378189819A81FC01218332834C
:100DD0008B819C81FC011286138689819A81FC019A
:100DE00080812FEF280F89819A81FC0120838981DE
:100DF0009A81FC0180812496CDBFDEBFDF91CF9127
:100E000008951F93CF93DF93CDB7DEB780EA90E0CC
:100E1000FC018281182F80EA90E020EA30E0F9019D
:100E20002281287FFC012283812FDF91CF911F91A6
:100E30000895CF93DF93CDB7DEB72A97CDBFDEBF3E
:100E40008D839E836F83788749875A878D819E81A2
:100E500021E1FC0120838D819E8101978D839E83FA
:100E60008D819E8122E2FC0120838D819E810197EC
:100E70008D839E838D819E8123E3FC0120838D8160
:100E80009E8101978D839E838F819885CC01A0E000
:100E9000B0E089839A83AB83BC8329818D819E8155
:100EA000FC0120838D819E8101978D839E838981A2
:100EB0009A81AB81BC81892F9A2FAB2FBB27898365
:100EC0009A83AB83BC8329818D819E81FC01208321
:100ED0008D819E8101978D839E8389819A81AB81CB
:100EE000BC81892F9A2FAB2FBB2789839A83AB8331
:100EF000BC8329818D819E81FC0120838D819E810F
:100F000001978D839E838D819E8121E3FC01208347
:100F10008D819E8101978D839E838D819E8120E8A6
:100F2000FC0120838D819E8101978D839E838D811D
:100F30009E8127E8FC0120838D819E8101978D830E
:100F40009E838D819E81FC0110828D819E810197FF
:100F50008D839E838D819E81FC0110828D819E8177
:100F600001978D839E838D819E8122E0FC012083E9
:100F70008D819E8101978D839E838D819E8123E04B
:100F8000FC0120838D819E8101978D839E838D81BD
:100F90009E8124E0FC0120838D819E8101978D83B9
:100FA0009E838D819E8125E0FC0120838D819E8121
:100FB00001978D839E838D819E8126E0FC01208395
:100FC0008D819E8101978D839E838D819E8127E0F7
:100FD000FC0120838D819E8101978D839E838D816D
:100FE0009E8128E0FC0120838D819E8101978D8365
:100FF0009E838D819E8129E0FC0120838D819E81CD
:1010000001978D839E838D819E8120E1FC01208349
:101010008D819E8101978D839E838D819E8121E1AB
:10102000FC0120838D819E8101978D839E838D811C
:101030009E8122E1FC0120838D819E8101978D8319
:101040009E838D819E8123E1FC0120838D819E8181
:1010500001978D839E838D819E8124E1FC012083F5
:101060008D819E8101978D839E838D819E8125E157
:10107000FC0120838D819E8101978D839E838D81CC
:101080009E8126E1FC0120838D819E8101978D83C5
:101090009E838D819E8127E1FC0120838D819E812D
:1010A00001978D839E838D819E8128E1FC012083A1
:1010B0008D819E8101978D839E838D819E8129E103
:1010C000FC0120838D819E8101978D839E838D817C
:1010D0009E8120E2FC0120838D819E8101978D837A
:1010E0009E838D819E8121E2FC0120838D819E81E2
:1010F00001978D839E838D819E8122E2FC01208356
:101100008D819E8101978D839E838D819E8123E2B7
:10111000FC0120838D819E8101978D839E8389852B
:101120009A85CC01A0E0B0E089839A83AB83BC832D
:1011300029818D819E81FC0120838D819E81019773
:101140008D839E8389819A81AB81BC81892F9A2F5F
:10115000AB2FBB2789839A83AB83BC8329818D8185
:101160009E81FC0120838D819E8101978D839E83CA
:101170008D819E8126E2FC0120838D819E810197D5
:101180008D839E838D819E8127E2FC0120838D814A
:101190009E8101978D839E838D819E8128E2FC0133
:1011A00020838D819E8101978D839E838D819E8179
:1011B00029E2FC0120838D819E8101978D839E838E
:1011C0008D819E8120E3FC0120838D819E8101978A
:1011D0008D839E838D819E812A96CDBFDEBFDF9158
:1011E000CF910895CF93DF93CDB7DEB70E94530A16
:1011F000A091C82BB091C92B0D900DBE0D900EBEC5
:10120000EF91DF91CF91BF91AF919F918F917F919E
:101210006F915F914F913F912F911F910F91FF908F
:10122000EF90DF90CF90BF90AF909F908F907F9086
:101230006F905F904F903F902F901F900F90FF9175
:10124000F093A200FF91FFBFFF91089581E0DF912D
:10125000CF910895FF93FFB7FF93F091A200FF9302
:10126000F87FF093A2000F921F9211242F923F92C9
:101270004F925F926F927F928F929F92AF92BF92A6
:10128000CF92DF92EF92FF920F931F932F933F9392
:101290004F935F936F937F938F939F93AF93BF937E
:1012A000CF93DF93EF93A091C82BB091C92B0DB6CC
:1012B0000D920EB60D920E946F11A091C82BB091A5
:1012C000C92B0D900DBE0D900EBEEF91DF91CF9109
:1012D000BF91AF919F918F917F916F915F914F914E
:1012E0003F912F911F910F91FF90EF90DF90CF9042
:1012F000BF90AF909F908F907F906F905F904F9036
:101300003F902F901F900F90FF91F093A200FF91BC
:10131000FFBFFF91089500001F93CF93DF931F92AB
:10132000CDB7DEB789838091382C982F8981892B9E
:101330008093382C80EA90E0FC018081813061F05C
:1013400080EA90E0FC018081823031F080EA90E018
:10135000FC0180818430E1F48091382C8823C1F035
:1013600080EA90E0FC018281182F80EA90E020EA78
:1013700030E0F9012281287FFC012283812F182F80
:101380001092382C0E946F1180EA90E0FC011283C9
:1013900000000F90DF91CF911F9108951F93CF937D
:1013A000DF93CDB7DEB780EA90E0FC018281182F91
:1013B00080EA90E020EA30E0F9012281287FFC01F8
:1013C0002283812F182F0E945F1080EA90E0FC0199
:1013D00012830000DF91CF911F910895FF93FFB713
:1013E000FF93F091A200FF93F87FF093A2000F9279
:1013F0001F9211242F923F924F925F926F927F9291
:101400008F929F92AF92BF92CF92DF92EF92FF9214
:101410000F931F932F933F934F935F936F937F93FC
:101420008F939F93AF93BF93CF93DF93EF93A0914D
:10143000C82BB091C92B0DB60D920EB60D920E941D
:10144000CE0981E00E948C09A091C82BB091C92BD4
:101450000D900DBE0D900EBEEF91DF91CF91BF911B
:10146000AF919F918F917F916F915F914F913F913C
:101470002F911F910F91FF90EF90DF90CF90BF9031
:10148000AF909F908F907F906F905F904F903F9024
:101490002F901F900F90FF91F093A200FF91FFBF3C
:1014A000FF9118950000CF93DF9300D01F92CDB726
:1014B000DEB780E09DE7A0E0B0E089839A83AB834C
:1014C000BC8389819A81AB81BC81689415F8B695FB
:1014D000A795979587951694D1F789839A83AB83BF
:1014E000BC8389819A81AB81BC810197A109B10933
:1014F00089839A83AB83BC8380E098E029813A8119
:10150000FC0126A337A365E080E098E00E94F10487
:1015100061E080E098E00E940D0500002496CDBFB8
:10152000DEBFDF91CF910895CF93DF93CDB7DEB7C4
:101530002597CDBFDEBF8B839C836D838B819C8180
:1015400089839A83F091A200FF93F87FF093A20021
:1015500089819A81FC018081918129813A81F901F7
:10156000278D422F50E029813A81F90120A1222FB5
:1015700030E0429FB001439F700D529F700D1124C7
:101580009B01280F391F89819A81FC0122833383B3
:1015900089819A81FC01168E89819A81FC012081C2
:1015A000318189819A81FC012483358389819A81E3
:1015B000FC018081918129813A81F901278D222FB7
:1015C00030E0A9014150510929813A81F90120A156
:1015D000222F30E0429FB001439F700D529F700D4B
:1015E00011249B01280F391F89819A81FC012683D0
:1015F000378389819A812FEFFC0121A389819A8108
:101600002FEFFC0122A38D81882381F489819A81A7
:10161000FC0180858823A1F089819A8108960E9427
:101620003F12882369F00E942A090AC089819A81A1
:1016300008960E94920589819A8143960E9492059C
:10164000FF91F093A20081E02596CDBFDEBFDF9130
:10165000CF9108950F931F93CF93DF93CDB7DEB74C
:101660002997CDBFDEBF8F83688749878885882308
:1016700019F419821A820FC08F81482F50E0888593
:10168000282F30E0429FC001439F900D529F900D44
:10169000112489839A8389819A8185960E942905DC
:1016A0008B839C838B819C81892B81F08B819C8196
:1016B00085968D839E832B813C818D819E818901BE
:1016C0002985AC0168858F810E94700B8B819C817C
:1016D0002996CDBFDEBFDF91CF911F910F91089565
:1016E0000F931F93CF93DF93CDB7DEB72797CDBF6F
:1016F000DEBF89836A834B835C832D830E831F83C4
:101700008A81882341F48E819F812E813F81FC0153
:101710002083318307C08E819F812B813C81FC0116
:10172000208331838E819F812981FC01278F8E81C7
:101730009F812A81FC0120A38E819F8161E00E940C
:10174000940A8E819F812D81FC0124A3000027969D
:10175000CDBFDEBFDF91CF911F910F910895CF9341
:10176000DF93CDB7DEB72C97CDBFDEBF8E839F83CF
:10177000688779874A875B872C878E819F818A83D8
:101780009B830E9401078C838A819B81FC01268DAB
:101790008A819B81FC01878D281718F08C85823007
:1017A00089F58A819B81FC0182A18D8328853985F9
:1017B0008A819B814C85B9010E946F0C8D818F3F7E
:1017C000B9F48A819B81FC0183898823C1F08A81D5
:1017D0009B8143960E943F12882389F08A859B85CE
:1017E000892B69F08A859B8521E0FC01208307C055
:1017F0008D818F5F282F8A819B81FC0122A381E04C
:10180000898301C0198280EA90E02C81FC01228347
:1018100089812C96CDBFDEBFDF91CF910895CF9304
:10182000DF93CDB7DEB72C97CDBFDEBF8F83988710
:1018300069877A874B875C878F8198858A839B83AA
:101840000E9401078C838A819B81FC01868D8D8398
:101850008D818823B9F18A819B81FC0181A18E83CE
:1018600029853A858A819B81B9010E94240D8D8149
:101870002FEF280F8A819B81FC01268F8E818F3F5D
:10188000B9F48A819B81FC0180858823C1F08A811B
:101890009B8108960E943F12882389F08B859C8546
:1018A000892B69F08B859C8521E0FC01208307C092
:1018B0008E818F5F282F8A819B81FC0121A381E08B
:1018C000898301C0198280EA90E02C81FC01228387
:1018D00089812C96CDBFDEBFDF91CF910895CF9344
:1018E000DF93CDB7DEB72797CDBFDEBF8B839C8359
:1018F0006D837E834F831A828B819C81FC01868D50
:1019000089838B819C81FC0180A1882309F48EC08E
:101910008F818823D9F58B819C81FC0180A1482F80
:1019200050E08B819C81FC01848195812D813E81D9
:10193000B9010E94761B8B819C81FC012481358139
:101940008B819C81FC0180A1882F90E0280F391F9A
:101950008B819C81FC01248335838B819C81FC01DC
:10196000248135818B819C81FC01828193812817A0
:10197000390708F45BC08B819C81FC012081318197
:101980008B819C81FC012483358350C08B819C8199
:10199000FC0180A1482F50E08B819C81FC01868155
:1019A00097812D813E81B9010E94761B8B819C819C
:1019B000FC01268137818B819C81FC0180A1882FCD
:1019C00090E0919581959109280F391F8B819C8119
:1019D000FC01268337838B819C81FC012681378122
:1019E0008B819C81FC018081918128173907A8F4A3
:1019F0008B819C81FC01228133818B819C81FC0144
:101A000080A1882F90E0919581959109280F391F29
:101A10008B819C81FC01268337838F81823031F456
:101A20008981882319F0898181508983898121E006
:101A3000280F8B819C81FC01268F8A812796CDBF40
:101A4000DEBFDF91CF910895CF93DF9300D01F9237
:101A5000CDB7DEB789839A836B837C8389819A8132
:101A6000FC0180A18823C9F189819A81FC0126812A
:101A7000378189819A81FC0180A1882F90E0280F0D
:101A8000391F89819A81FC012683378389819A8154
:101A9000FC012681378189819A81FC0182819381B1
:101AA0002817390750F089819A81FC012081318102
:101AB00089819A81FC012683378389819A81FC017F
:101AC00080A1482F50E089819A81FC0126813781CD
:101AD0008B819C81B9010E94761B00002496CDBFAA
:101AE000DEBFDF91CF9108958F929F92AF92BF9208
:101AF000CF92DF92EF92FF920F931F93CF93DF93DA
:101B0000CDB7DEB76097CDBFDEBF8E839F8368877A
:101B100079874A875B872C873D870E87EF86F88A0F
:101B20008A859B850E9429058C839D838C819D815C
:101B3000892BB9F08CE290E00E94290589839A8371
:101B400089819A81892B41F089819A812C813D81FB
:101B5000FC01238F348F07C08C819D810E94730507
:101B600002C019821A8289819A81892B09F18A859A
:101B70009B85CC01A0E0B0E009811A814F8558898E
:101B80002C853D8568857985EE81FF81812C912C9E
:101B900058016A01EE8489019C01AD01CF010E94C8
:101BA000EB0D89819A810E94C10E81E08B8302C076
:101BB0008FEF8B838B816096CDBFDEBFDF91CF919E
:101BC0001F910F91FF90EF90DF90CF90BF90AF905B
:101BD0009F908F9008958F929F92AF92BF92CF92D5
:101BE000DF92EF92FF920F931F93CF93DF93CDB7C6
:101BF000DEB76497CDBFDEBF8C839D836E837F830A
:101C0000288739874A875B870C871D87EE86CF86B2
:101C1000D88AA98ABA8A8B8A9C8A28853985898933
:101C20009A89FC01838D948DA90165EA70E00E9478
:101C30007F1B89899A89FC01238D348D888599853C
:101C40000197820F931F8A839B83198221C0898108
:101C5000882F90E02981222F30E04E815F81240F70
:101C6000351FF901408129893A89820F931F4D96CA
:101C7000FC0140838981882F90E02E813F81820F73
:101C8000931FFC018081882339F089818F5F8983CC
:101C900089818830E0F201C0000089899A89FC01BD
:101CA00014A28E85843010F083E08E8789899A890A
:101CB0002E85FC01228F89899A8902960E94CC0583
:101CC00089899A890E960E94CC0589899A892989E1
:101CD0003A89FC01228733878E85882F90E0A0E027
:101CE000B0E024E030E040E050E079018A01E81AF9
:101CF000F90A0A0B1B0BD801C70129893A89F90196
:101D000086879787A08BB18B89899A8929893A8997
:101D1000FC01268B378B89899A89FC0117A210A6B2
:101D200011A612A689899A89FC0113A64C855D85A6
:101D30002C813D818A819B81B9010E9419079C01F8
:101D400089899A89FC01208331838F859889892B21
:101D500039F08F85988929893A89FC01208331835C
:101D600000006496CDBFDEBFDF91CF911F910F9130
:101D7000FF90EF90DF90CF90BF90AF909F908F90AB
:101D80000895CF93DF931F921F92CDB7DEB789835B
:101D90009A83F091A200FF93F87FF093A2008091C4
:101DA000262C8F5F8093262C8091C82B9091C92B75
:101DB000892B69F489819A818093C82B9093C92BD0
:101DC0008091262C8130C9F40E94BA1216C08091ED
:101DD0002C2C882391F48091C82B9091C92BFC0165
:101DE000228D89819A81FC01828D821730F0898150
:101DF0009A818093C82B9093C92B8091302C8F5F50
:101E00008093302C2091302C89819A81FC0125A36C
:101E100089819A81FC01928D80912B2C891730F455
:101E200089819A81FC01828D80932B2C89819A81F2
:101E3000AC014E5F5F4F89819A81FC01828D282F12
:101E400030E06BE0629FC001639F900D11248653C8
:101E5000944DBA010E94DF05FF91F093A20080919A
:101E60002C2C882371F08091C82B9091C92BFC01F8
:101E7000228D89819A81FC01828D281710F40E949D
:101E80002A0900000F900F90DF91CF910895CF9312
:101E9000DF93CDB7DEB72597CDBFDEBF6A837B83E7
:101EA0008C839D8319828A819B81AC81BD81892B22
:101EB0008A2B8B2B71F00E94BB0F8A819B81AC8196
:101EC000BD8140E0BC01CD010E948C130E94C80F6F
:101ED00089838981882311F40E942A0900002596AC
:101EE000CDBFDEBFDF91CF910895EF92FF920F93A8
:101EF000CF93DF931F92CDB7DEB70F2EF5E3EF2E12
:101F0000FCE2FF2EF02D00E020E030E048EC50E055
:101F100060E070E287EA92E10E94740D8983898112
:101F2000813009F580EA90E020EA30E0F901228171
:101F3000287FFC0122838FEF9FEFDC018093312CFF
:101F40009093322CA093332CB093342C81E0809367
:101F50002C2C1092272C1092282C1092292C1092A5
:101F60002A2C0E94F20800000F90DF91CF910F9170
:101F7000FF90EF900895CF93DF93CDB7DEB78091B8
:101F8000372C8F5F8093372C0000DF91CF9108951D
:101F9000CF93DF9300D01F92CDB7DEB719821A829C
:101FA0001B82F091A200FF93F87FF093A200809132
:101FB000372C81508093372C8091372C882309F05F
:101FC00074C08091262C882309F46FC046C080918C
:101FD000172C9091182CFC018085918589839A8318
:101FE00089819A810E960E94AB0689819A81029618
:101FF0000E94AB0689819A81FC01928D80912B2CE5
:10200000891730F489819A81FC01828D80932B2C71
:1020100089819A81AC014E5F5F4F89819A81FC0171
:10202000828D282F30E06BE0629FC001639F900D8E
:1020300011248653944DBA010E94DF0589819A814B
:10204000FC01228D8091C82B9091C92BFC01828DBF
:10205000281718F081E080932E2C8091102C882373
:1020600009F0B5CF89819A81892B11F00E94511313
:1020700080912D2C8C838C81882379F00E945F10B5
:10208000882319F081E080932E2C8C8181508C83E1
:102090008C81882399F710922D2C80912E2C8823E7
:1020A00021F081E08B830E942A09FF91F093A20026
:1020B0008B812496CDBFDEBFDF91CF910895CF9362
:1020C000DF93CDB7DEB72D97CDBFDEBF19828091EC
:1020D000372C882309F0F1C08091272C9091282C6F
:1020E000A091292CB0912A2C0196A11DB11D8A83A3
:1020F0009B83AC83BD838A819B81AC81BD818093AE
:10210000272C9093282CA093292CB0932A2C8A81D9
:102110009B81AC81BD81892B8A2B8B2BD9F480913B
:102120000C2C90910D2C8E839F8380910E2C90917E
:102130000F2C80930C2C90930D2C8E819F8180937B
:102140000E2C90930F2C80912F2C8F5F80932F2C2F
:102150000E9451138091312C9091322CA091332CFC
:10216000B091342C2A813B814C815D81281739073D
:102170004A075B0708F48AC080910C2C90910D2CC3
:10218000FC018081882361F48FEF9FEFDC01809355
:10219000312C9093322CA093332CB093342C76C0F6
:1021A00080910C2C90910D2CFC0187819085FC0175
:1021B000808591858887998788859985FC018281AA
:1021C0009381A481B5818A879B87AC87BD872A814B
:1021D0003B814C815D818A859B85AC85BD852817B7
:1021E00039074A075B0768F48A859B85AC85BD85FE
:1021F0008093312C9093322CA093332CB093342CB9
:1022000045C08885998502960E94AB068885998588
:10221000FC01808D918D892B29F0888599850E96FA
:102220000E94AB0688859985FC01928D80912B2CAC
:10223000891730F488859985FC01828D80932B2C39
:1022400088859985AC014E5F5F4F88859985FC0133
:10225000828D282F30E06BE0629FC001639F900D5C
:1022600011248653944DBA010E94DF058885998513
:10227000FC01228D8091C82B9091C92BFC01828D8D
:10228000281708F479CF81E0898376CF8091C82B15
:102290009091C92BFC01828D282F30E04BE0429FAA
:1022A000C001439F900D11248653944DFC01808101
:1022B000823040F081E0898305C080912D2C8F5FB2
:1022C00080932D2C80912E2C882311F081E089831E
:1022D00089812D96CDBFDEBFDF91CF910895CF9339
:1022E000DF93CDB7DEB72997CDBFDEBF8091372C06
:1022F000882321F081E080932E2CBAC010922E2CDE
:102300008091C82B9091C92BFC01838D948D8A8379
:102310009B8385EA95EADC018C839D83AE83BF8332
:102320008A819B81FC0120813181428153818C8192
:102330009D81AE81BF81281739074A075B0799F550
:102340008A819B810496FC012081318142815381E5
:102350008C819D81AE81BF81281739074A075B07B1
:1023600011F58A819B810896FC012081318142818F
:1023700053818C819D81AE81BF81281739074A071F
:102380005B0789F48A819B810C96FC012081318155
:10239000428153818C819D81AE81BF81281739078D
:1023A0004A075B0771F08091C82B9091C92B9C0163
:1023B000235E3F4F8091C82B9091C92BB9010E9499
:1023C000791480912B2C898303C089818150898362
:1023D0008981282F30E04BE0429FC001439F900D40
:1023E00011248653944DFC018081882371F38981E7
:1023F000282F30E04BE0429FC001439F900D1124F5
:102400008653944D8887998788859985FC018181B9
:102410009281FC012481358188859985FC01218385
:10242000328388859985FC0121813281888599854F
:1024300003962817390769F488859985FC018181FD
:102440009281FC012481358188859985FC01218355
:10245000328388859985FC0181819281FC01808588
:1024600091858093C82B9093C92B898180932B2CC5
:1024700000002996CDBFDEBFDF91CF910895CF93A5
:10248000DF93CDB7DEB72597CDBFDEBF8C839D83AD
:102490008C819D81FC0187819085FC0180859185DF
:1024A0008A839B838A819B810E960E94AB068091D2
:1024B000372C882351F58A819B8102960E94AB06B6
:1024C0008A819B81FC01928D80912B2C891730F49D
:1024D0008A819B81FC01828D80932B2C8A819B8138
:1024E000AC014E5F5F4F8A819B81FC01828D282F5A
:1024F00030E06BE0629FC001639F900D1124865312
:10250000944DBA010E94DF0508C08A819B810E9616
:10251000BC0180E19CE20E94DF058A819B81FC0175
:10252000228D8091C82B9091C92BFC01828D82173E
:1025300030F481E0898381E080932E2C01C01982E0
:1025400089812596CDBFDEBFDF91CF910895CF93CE
:10255000DF931F921F92CDB7DEB789839A830E94C3
:10256000F5128091CA2B823010F00E942A090E9435
:102570008C17F5CFCF93DF931F92CDB7DEB71982BB
:1025800010C08981282F30E04BE0429FC001439F5B
:10259000900D11248653944D0E94920589818F5F7E
:1025A00089838981843068F386EF9BE20E949205DB
:1025B00081E09CE20E94920580E19CE20E949205EB
:1025C0008BE19CE20E94920586EF9BE280930C2CAB
:1025D00090930D2C81E09CE280930E2C90930F2C15
:1025E00000000F90DF91CF910895CF93DF93CDB787
:1025F000DEB70000DF91CF910895CF93DF9300D035
:1026000000D0CDB7DEB78D839E8319821A821B82DC
:102610001C8210C08D819E8101968D839E8389814D
:102620009A81AB81BC810196A11DB11D89839A83DA
:10263000AB83BC838D819E81FC018081853A51F3FF
:1026400089819A812696CDBFDEBFDF91CF91089513
:10265000CF93DF93CDB7DEB72797CDBFDEBF8E8395
:102660009F838E819F81892B29F48091C82B909123
:10267000C92B02C08E819F8189839A8389819A8127
:10268000FC01838D948D8B839C838B819C810E9424
:10269000FD128D838D812796CDBFDEBFDF91CF9157
:1026A0000895CF93DF931F921F92CDB7DEB780912D
:1026B0000C2C90910D2CFC018081882361F48FEF0C
:1026C0009FEFDC018093312C9093322CA093332C1C
:1026D000B093342C1BC080910C2C90910D2CFC01DC
:1026E00087819085FC018085918589839A83898182
:1026F0009A81FC0182819381A481B5818093312CE0
:102700009093322CA093332CB093342C00000F9074
:102710000F90DF91CF910895CF93DF93CDB7DEB7C0
:102720002D97CDBFDEBF69877A878B879C874D87C2
:102730008091272C9091282CA091292CB0912A2CA3
:1027400089839A83AB83BC838091C82B9091C92BDA
:1027500002960E94AB0689859A85AB85BC858F3F22
:102760009F4FAF4FBF4F71F48D85882359F08091F3
:10277000C82B9091C92B0296BC018BE19CE20E9470
:10278000DF0564C029813A814B815C8189859A8506
:10279000AB85BC85820F931FA41FB51F8D839E83BD
:1027A000AF83B8872091C82B3091C92B8D819E8132
:1027B000AF81B885F90182839383A483B5832D818A
:1027C0003E814F81588589819A81AB81BC812817D0
:1027D00039074A075B0778F48091C82B9091C92B81
:1027E0009C012E5F3F4F80910E2C90910F2CB901D0
:1027F0000E942A062BC08091C82B9091C92B9C0166
:102800002E5F3F4F80910C2C90910D2CB9010E94AE
:102810002A068091312C9091322CA091332CB091CA
:10282000342C2D813E814F815885281739074A075E
:102830005B0760F48D819E81AF81B8858093312CD8
:102840009093322CA093332CB093342C00002D960F
:10285000CDBFDEBFDF91CF910895CF93DF931F925D
:10286000CDB7DEB784E1898380E090E00E94281331
:102870008093392C8091732C9091742C0E94281392
:1028800080933C2C8091692C90916A2C0E94281393
:1028900080933B2C8091612C9091622C0E94281394
:1028A00080933A2C90913C2C8981981778F09091E4
:1028B0003B2C8981981750F090913A2C8981981778
:1028C00028F09091392C8981981718F484E30E949C
:1028D0009E1400000F90DF91CF910895CF93DF9366
:1028E000CDB7DEB784E30E949E140000DF91CF9144
:1028F0000895CF93DF9300D01F92CDB7DEB78983C1
:102900009A836B837C830E942D148BE20E949E1419
:1029100000002496CDBFDEBFDF91CF910895CF9305
:10292000DF931F921F92CDB7DEB78A838AE2898335
:1029300000000F900F90DF91CF910895CF93DF9318
:102940001F921F92CDB7DEB78A838A818B3219F42A
:1029500081E089830EC08A818C3219F482E08983F8
:1029600008C08A818F3219F483E0898302C084E031
:1029700089830E94C11400000F900F90DF91CF91C6
:102980000895CF93DF93CDB7DEB784E390E028EDD1
:10299000FC01208388E790E021E0FC012183000016
:1029A000DF91CF910895CF92EF920F93CF93DF9362
:1029B000CDB7DEB780E496E028E0FC01218380E417
:1029C00096E024E0FC012283CC24C3946894EE2496
:1029D000E4F800E02AEF4EE658E060EA78E089E4A7
:1029E0009CE20E94FA140000DF91CF910F91EF90CA
:1029F000CF900895CF92EF920F93CF93DF93CDB7FF
:102A0000DEB72B97CDBFDEBF8A839B836C837D832C
:102A10004E835F8328870987EA86CB8682E5898390
:102A20002C813D818A819B810B85498569810E942A
:102A3000E8018A819B81FC01808191812A813B810F
:102A4000F90120813181F90124812B7FFC0124834C
:102A50008A819B81FC018081918123E0FC01258397
:102A60008A819B81FC01808191812A813B81F901CE
:102A700020813181F9012381322F3F7C2A85232B4C
:102A8000FC0123838A819B81FC01808191812A81C1
:102A90003B81F90120813181F90123812C7FFC01E7
:102AA00023838A819B81FC01808191812A813B81E2
:102AB000F90120813181F9012381237FFC012383E6
:102AC0008A819B81FC01808191812E81FC0126837A
:102AD0008A819B81FC01808191812885022E000CD6
:102AE000330B22953295307F3227207F3227422FB9
:102AF0002E813F81232F330F330B242BFC0127839F
:102B00008985882319F08985813079F48A819B81B0
:102B1000FC01808191812A813B81F90120813181F1
:102B2000F90124812061FC0124838985882319F01F
:102B30008985823079F48A819B81FC018081918131
:102B40002A813B81F90120813181F90124812860AA
:102B5000FC01248300002B96CDBFDEBFDF91CF9117
:102B60000F91EF90CF900895CF93DF93CDB7DEB75D
:102B700080E590E020E530E0F90120812160FC0152
:102B8000208380E590E0FC018181882F90E08170B6
:102B90009927892BB1F380E00E94C6018EE10E9443
:102BA0008F0160E080E00E94AF0143E060E080E4DC
:102BB0000E945A0180E590E020E530E0F901208193
:102BC0002860FC01208380E590E0FC018181882F52
:102BD00090E088709927892BB1F364E080EC0E9423
:102BE000770180E590E020E530E0F9012081206167
:102BF000FC01208360E080E00E94AF0180E590E06E
:102C0000FC018181882F90E080719927892BB1F395
:102C100084E00E94C60187E00E948F010000DF91DE
:102C2000CF910895CF93DF931F92CDB7DEB780E7A2
:102C300090E020E730E0F90120812761FC0120834A
:102C400080E790E020E730E0F90121812160FC017C
:102C5000218380E790E020E730E0F90122812760BE
:102C6000FC01228380E790E020E730E0F901238136
:102C70002460FC01238380E790E020E730E0F90145
:102C800024812460FC01248380E790E020E730E089
:102C9000F90125812460FC01258380E790E020E78D
:102CA00030E0F90124812160FC01248380E790E079
:102CB00020E730E0F90124812260FC01248380E7D1
:102CC00090E020E730E0F90123812260FC012383BA
:102CD00080E790E020E730E0F90125812160FC01E8
:102CE000258380E790E020E730E0F9012381286424
:102CF000FC01238380E790E020E730E0F9012481A4
:102D00002860FC01248380E790E020E730E0F901AF
:102D100025812064FC01258380EC91E020EC31E0EA
:102D2000F90124852660FC0124878FE390E0FC01F3
:102D300080818983F89484E390E028EDFC0120836E
:102D400086E990E021E0FC0120838FE390E0298177
:102D5000FC01208300000F90DF91CF910895EF9246
:102D60000F93CF93DF93CDB7DEB780EB90E020E8F1
:102D7000FC01208380E096E028E1FC01208B80E2CA
:102D800096E021E0FC01218380E296E021E0FC0155
:102D9000268380E296E022E0FC01218380E296E037
:102DA00022E0FC01258380E296E024E0FC012183FF
:102DB00080E296E024E0FC01258380E296E028E0B2
:102DC000FC01228380EB90E020E1FC01208380E481
:102DD00096E028E1FC01208B80EB90E020E2FC01F2
:102DE000208380E496E028E1FC01208B6894EE24A7
:102DF000E1F800E020E040E061E080E696E00E943B
:102E0000B00480E696E021E0FC01228341E062E02C
:102E100080E696E00E948D0480EB90E022E0FC01C9
:102E2000208380E696E028E1FC01208B80EB90E097
:102E300020E1FC01208380E696E028E1FC01208B64
:102E400080EB90E020E2FC01208380E696E028E120
:102E5000FC01208B80EB90E020E8FC01208380E6E1
:102E600096E028E1FC01208B80EB90E021E0FC0162
:102E7000208380E896E028E1FC01208B80EB90E045
:102E800022E0FC01208380E896E028E1FC01208B11
:102E900080EB90E028E0FC01208380E896E028E1C8
:102EA000FC01208B0000DF91CF910F91EF900895EE
:102EB0001F920F9200903F000F92112400903B0050
:102EC0000F922F933F934F935F936F937F938F93C3
:102ED0009F93AF93BF93EF93FF93CF93DF93CDB7C0
:102EE000DEB7F8940E94C1140000DF91CF91FF91EA
:102EF000EF91BF91AF919F918F917F916F915F9172
:102F00004F913F912F910F9000923B000F900092B4
:102F10003F000F901F901895CF93DF93CDB7DEB78A
:102F200080916F2C9091702CA091712CB091722C8B
:102F30000196A11DB11D80936F2C9093702CA093CE
:102F4000712CB093722C0E942D1488E490E028E438
:102F500030E0F9012081207F2160FC0120838895E9
:102F600088E490E028E430E0F90120812E7FFC0124
:102F700020830000DF91CF910895EF92FF920F938D
:102F8000CF93DF93CDB7DEB72C97CDBFDEBF88E7F9
:102F900090E0FC018081882F90E080729927892B36
:102FA00031F088E790E020E2FC0120832FC088E721
:102FB00090E0FC018081882F90E081709927892B17
:102FC00031F088E790E021E0FC0120831FC088E712
:102FD00090E0FC018081882F90E080719927892BF7
:102FE00031F088E790E020E1FC0120830FC088E702
:102FF00090E0FC018081882F90E082709927892BD6
:1030000029F088E790E022E0FC0120830E948105FE
:1030100089839A8389819A81883B9B4019F084E354
:103020000E949E148DE390E0FC012081318187EAAB
:103030009CE2A901481B590BCA018B839C838B819D
:103040009C81CC971CF48AE30E949E140E94C918AC
:103050008D839E832B813C818D819E81F901E81BAC
:10306000F90BCF010B9718F08AE30E949E140E947F
:10307000B4150E94D3140E9450190E94AF160E94EA
:10308000121681E08F8381E088870F2EFBE6EF2EFA
:10309000FCE2FF2EF02D01E020E030E048EC50E0B3
:1030A00065E070E28AE798E10E94740D0E94C918F9
:1030B00089879A8789859A85892B19F48BE30E94E1
:1030C0009E140E9481058B879C878B859C858D3EF5
:1030D000910518F484E30E949E140E94750F80E00D
:1030E00090E02C96CDBFDEBFDF91CF910F91FF9086
:1030F000EF900895CF93DF931F921F92CDB7DEB765
:1031000089839A8380EA96E021E0FC01218380EAAA
:1031100096E022E0FC01218380EA96E024E0FC01B5
:10312000218380EA96E028E0FC01218380E896E094
:1031300021E0FC01218380E896E022E0FC0121836C
:1031400080E896E024E0FC01218380E896E028E016
:10315000FC01218380E896E02FE0FC01248380EAD3
:1031600096E02FE0FC01248364EF71E080E090E0C2
:103170000E94470F80E896E0FC01148280EA96E006
:10318000FC01148264EF71E080E090E00E94470F40
:10319000E1CFCF93DF9300D01F92CDB7DEB7198276
:1031A0001A8287EA9CE28B839C838B819C819C01A1
:1031B0002F5F3F4F2B833C83FC0180818A3A59F477
:1031C00089819A81019689839A838B819C8181155B
:1031D000904458F301C0000089819A812496CDBFA4
:1031E000DEBFDF91CF9108951F920F9200903F00B4
:1031F0000F9211248F939F93AF93BF93CF93DF933D
:10320000CDB7DEB78091792C90917A2CA0917B2C50
:10321000B0917C2C0196A11DB11D8093792C9093C7
:103220007A2CA0937B2CB0937C2C0000DF91CF9163
:10323000BF91AF919F918F910F9000923F000F909F
:103240001F9018951F920F9200903F000F9211242B
:103250008F939F93AF93BF93CF93DF93CDB7DEB799
:103260008091752C9091762CA091772CB091782C30
:103270000196A11DB11D8093752C9093762CA0937F
:10328000772CB093782C0000DF91CF91BF91AF9154
:103290009F918F910F9000923F000F901F90189573
:1032A000CF93DF931F921F92CDB7DEB784EA898355
:1032B00085E08A8340E061E089810E942A0B809347
:1032C0007D2C90937E2C80917D2C90917E2C892B4F
:1032D00019F48AE20E949E1440E061E089810E9414
:1032E0002A0B80939B2C90939C2C80919B2C9091EB
:1032F0009C2C892B19F48AE20E949E1480917D2CCB
:1033000090917E2C8093812C9093822C80919B2C89
:1033100090919C2C8093872C9093882C40E061E0C6
:103320008A810E942A0B8093992C90939A2C8091E9
:10333000992C90919A2C892B19F48AE20E949E1460
:1033400000000F900F90DF91CF910895CF93DF93FE
:103350001F921F92CDB7DEB789839A8389819A81A4
:10336000FC01108200000F900F90DF91CF91089523
:10337000CF93DF9300D0CDB7DEB789839A836B8379
:1033800089819A816B810E94CB192396CDBFDEBFC4
:10339000DF91CF910895CF93DF93CDB7DEB7259717
:1033A000CDBFDEBF8B839C836D838B819C81FC01B1
:1033B0008081882F90E081309105F1F08230910575
:1033C0001CF4892B41F06BC082309105B1F1039759
:1033D00009F43EC064C08D81843221F08D81813238
:1033E00009F062C08B819C81FC0111828B819C81E0
:1033F00021E0FC01208358C08D818A3231F48B8119
:103400009C8122E0FC0120830CC08B819C81FC010B
:103410008181982F8D818927282F8B819C81FC01A8
:1034200021838D818D3021F08D818A3009F03EC05D
:103430008B819C81FC01108239C08B819C812D8104
:10344000FC0122838B819C8123E0FC01208331C01D
:103450008B819C812D81FC0123838B819C81FC01CC
:1034600014828B819C81FC0110828B819C8102964D
:1034700040E150E060E070E00E94601ADC01CB01A6
:1034800089839A838B819C81FC018181282F30E084
:1034900089819A812817390759F080E00BC08B8108
:1034A0009C81FC01108205C0000003C0000001C027
:1034B000000081E02596CDBFDEBFDF91CF9108955A
:1034C0003F924F925F926F927F928F929F92AF92B4
:1034D000BF92CF92DF92EF92FF920F931F93CF9301
:1034E000DF935C016B017A016115710519F0FB0135
:1034F00080839183E114F10429F0C7010297839737
:1035000008F0C9C0E5012196F5011081812F90E0F6
:103510000E946D1B892B11F05E01F4CF1D3229F43E
:103520002196F501118101E007C01B3221F4E5016C
:103530002296F501118100E0E114F104B1F0F0E10F
:10354000EF16F10429F4B0C010E3E114F10401F125
:103550002AE0E216F104B1F180E1E816F10471F01D
:10356000E8E0EE16F104F1F413C0103341F5888160
:103570008F7D883549F7198122960260F0E1EF2EA0
:10358000F12C88248A94982CA82CAFE0BA2E20C065
:1035900078E0E72EF12C88248A94982CA82CEFE16F
:1035A000BE2E16C06FEF7FEFCB0197010F2C000CE2
:1035B000440B550B0E94991B49015A0109C08AE02E
:1035C000E82EF12C69E9862E982CA82C69E1B62EFC
:1035D00040E060E070E0CB0127010F2C000C660892
:1035E0007708FE0150ED352E310E29E0231570F4D9
:1035F0002FEB210F2A3118F439EC332E06C02FE9B6
:10360000210F2A3130F529EA322E310E232D30E0F8
:103610002E153F05F4F44F3FC9F086169706A8060D
:10362000B90688F0A30192010E94891B232D30E086
:1036300040E050E0620F731F841F951F62177307ED
:103640008407950710F44FEF01C041E021961081E7
:10365000C8CFC114D10451F0442311F0219703C005
:1036600001FF04C02297F601C083D18300FF07C089
:1036700090958095709561957F4F8F4F9F4F4F3FED
:1036800079F482E290E08093A52C9093A62C3FEFF2
:103690002FEF9FEF0DC040E030E020E090E008C049
:1036A000462F372F282F04C0103309F067CF5FCF84
:1036B000642F732F822FDF91CF911F910F91FF9075
:1036C000EF90DF90CF90BF90AF909F908F907F90C2
:1036D0006F905F904F903F90089591110C94861BCE
:1036E000803219F089508550C8F70895FB01DC013C
:1036F00002C001900D9241505040D8F70895DC016E
:1037000001C06D9341505040E0F7089599278827F4
:103710000895DB018F939F930E94BB1BBF91AF91D4
:10372000A29F800D911DA39F900DB29F900D11241B
:103730000895A1E21A2EAA1BBB1BFD010DC0AA1FF2
:10374000BB1FEE1FFF1FA217B307E407F50720F00A
:10375000A21BB30BE40BF50B661F771F881F991F85
:103760001A9469F760957095809590959B01AC01CE
:10377000BD01CF0108950E94C61BA59F900DB49F67
:10378000900DA49F800D911D11240895A29FB0015A
:10379000B39FC001A39F700D811D1124911DB29F85
:0E37A000700D811D1124911D0895F894FFCF26
:0E37AE0049444C45006C6564426C696E6B00CA
:00000001FF
